{
  "contractName": "BusinessContract_v2",
  "abi": [
    {
      "constant": true,
      "inputs": [],
      "name": "getImplementation",
      "outputs": [
        {
          "name": "",
          "type": "address"
        }
      ],
      "payable": false,
      "stateMutability": "view",
      "type": "function"
    },
    {
      "constant": false,
      "inputs": [
        {
          "name": "sender",
          "type": "address"
        }
      ],
      "name": "initialize",
      "outputs": [],
      "payable": false,
      "stateMutability": "nonpayable",
      "type": "function"
    },
    {
      "constant": false,
      "inputs": [
        {
          "name": "_address",
          "type": "address"
        },
        {
          "name": "_type",
          "type": "uint256"
        }
      ],
      "name": "addActivity",
      "outputs": [],
      "payable": false,
      "stateMutability": "nonpayable",
      "type": "function"
    },
    {
      "constant": true,
      "inputs": [
        {
          "name": "_address",
          "type": "address"
        }
      ],
      "name": "getTotalPoint",
      "outputs": [
        {
          "name": "totalPoint",
          "type": "uint256"
        }
      ],
      "payable": false,
      "stateMutability": "view",
      "type": "function"
    }
  ],
  "bytecode": "0x608060405234801561001057600080fd5b506103d8806100206000396000f300608060405260043610610062576000357c0100000000000000000000000000000000000000000000000000000000900463ffffffff1680638858a1221461006757806389c82e85146100b4578063aaf10f421461010b578063c4d66de814610162575b600080fd5b34801561007357600080fd5b506100b2600480360381019080803573ffffffffffffffffffffffffffffffffffffffff169060200190929190803590602001909291905050506101a5565b005b3480156100c057600080fd5b506100f5600480360381019080803573ffffffffffffffffffffffffffffffffffffffff1690602001909291905050506102db565b6040518082815260200191505060405180910390f35b34801561011757600080fd5b50610120610324565b604051808273ffffffffffffffffffffffffffffffffffffffff1673ffffffffffffffffffffffffffffffffffffffff16815260200191505060405180910390f35b34801561016e57600080fd5b506101a3600480360381019080803573ffffffffffffffffffffffffffffffffffffffff16906020019092919050505061034e565b005b600260408051908101604052808473ffffffffffffffffffffffffffffffffffffffff168152602001838152509080600181540180825580915050906001820390600052602060002090600202016000909192909190915060008201518160000160006101000a81548173ffffffffffffffffffffffffffffffffffffffff021916908373ffffffffffffffffffffffffffffffffffffffff160217905550602082015181600101555050506064600360008473ffffffffffffffffffffffffffffffffffffffff1673ffffffffffffffffffffffffffffffffffffffff1681526020019081526020016000205401600360008473ffffffffffffffffffffffffffffffffffffffff1673ffffffffffffffffffffffffffffffffffffffff168152602001908152602001600020819055505050565b6000600360008373ffffffffffffffffffffffffffffffffffffffff1673ffffffffffffffffffffffffffffffffffffffff168152602001908152602001600020549050919050565b6000600160009054906101000a900473ffffffffffffffffffffffffffffffffffffffff16905090565b6000809054906101000a900473ffffffffffffffffffffffffffffffffffffffff1673ffffffffffffffffffffffffffffffffffffffff163373ffffffffffffffffffffffffffffffffffffffff161415156103a957600080fd5b505600a165627a7a723058202c2a319ef96a4704fa354e5ed77f5ddec64839fb0c3164311b8c0cea68dd75e60029",
  "source": "pragma solidity >=0.4.0 <0.6.0;\r\n\r\nimport '../Upgradeable.sol';\r\nimport './IBusiness.sol';\r\n\r\ncontract BusinessContract_v2 is IBusiness, Upgradeable {\r\n  struct Activity {\r\n    address _address;\r\n    uint _type;\r\n  }\r\n\r\n  Activity[] activities;\r\n  mapping (address => uint256) points;\r\n\r\n  function addActivity(address _address, uint _type) external {\r\n    activities.push(Activity(_address, _type));\r\n    points[_address] = points[_address] + 100;\r\n  }\r\n\r\n  function getTotalPoint(address _address) view external returns(uint totalPoint) {\r\n    return points[_address];\r\n  }\r\n}\r\n",
  "sourcePath": "C:\\Users\\NaotoHama\\Documents\\blockchain\\upgradeability_using_inherited_storage\\contracts\\Business\\BusinessContract_v2.sol",
  "compiler": {
    "name": "solc",
    "version": "0.4.25+commit.59dbf8f1.Emscripten.clang"
  },
  "schemaVersion": "2.0.2",
  "updatedAt": "2019-05-27T14:52:33.544Z"
}