{
  "contractName": "BusinessContract",
  "abi": [
    {
      "constant": true,
      "inputs": [],
      "name": "getImplementation",
      "outputs": [
        {
          "name": "",
          "type": "address"
        }
      ],
      "payable": false,
      "stateMutability": "view",
      "type": "function"
    },
    {
      "constant": false,
      "inputs": [
        {
          "name": "sender",
          "type": "address"
        }
      ],
      "name": "initialize",
      "outputs": [],
      "payable": false,
      "stateMutability": "nonpayable",
      "type": "function"
    },
    {
      "constant": false,
      "inputs": [
        {
          "name": "_address",
          "type": "address"
        },
        {
          "name": "_type",
          "type": "uint256"
        }
      ],
      "name": "addActivity",
      "outputs": [],
      "payable": false,
      "stateMutability": "nonpayable",
      "type": "function"
    },
    {
      "constant": true,
      "inputs": [
        {
          "name": "_address",
          "type": "address"
        }
      ],
      "name": "getTotalPoint",
      "outputs": [
        {
          "name": "totalPoint",
          "type": "uint256"
        }
      ],
      "payable": false,
      "stateMutability": "view",
      "type": "function"
    }
  ],
  "bytecode": "0x608060405234801561001057600080fd5b506104c5806100206000396000f3fe608060405260043610610062576000357c0100000000000000000000000000000000000000000000000000000000900463ffffffff1680638858a1221461006757806389c82e85146100c2578063aaf10f4214610127578063c4d66de81461017e575b600080fd5b34801561007357600080fd5b506100c06004803603604081101561008a57600080fd5b81019080803573ffffffffffffffffffffffffffffffffffffffff169060200190929190803590602001909291905050506101cf565b005b3480156100ce57600080fd5b50610111600480360360208110156100e557600080fd5b81019080803573ffffffffffffffffffffffffffffffffffffffff1690602001909291905050506103b9565b6040518082815260200191505060405180910390f35b34801561013357600080fd5b5061013c610405565b604051808273ffffffffffffffffffffffffffffffffffffffff1673ffffffffffffffffffffffffffffffffffffffff16815260200191505060405180910390f35b34801561018a57600080fd5b506101cd600480360360208110156101a157600080fd5b81019080803573ffffffffffffffffffffffffffffffffffffffff16906020019092919050505061042f565b005b600260408051908101604052808473ffffffffffffffffffffffffffffffffffffffff168152602001838152509080600181540180825580915050906001820390600052602060002090600202016000909192909190915060008201518160000160006101000a81548173ffffffffffffffffffffffffffffffffffffffff021916908373ffffffffffffffffffffffffffffffffffffffff160217905550602082015181600101555050506001600360008473ffffffffffffffffffffffffffffffffffffffff1673ffffffffffffffffffffffffffffffffffffffff1681526020019081526020016000206000015401600360008473ffffffffffffffffffffffffffffffffffffffff1673ffffffffffffffffffffffffffffffffffffffff168152602001908152602001600020600001819055506001600360008473ffffffffffffffffffffffffffffffffffffffff1673ffffffffffffffffffffffffffffffffffffffff16815260200190815260200160002060010160008381526020019081526020016000205401600360008473ffffffffffffffffffffffffffffffffffffffff1673ffffffffffffffffffffffffffffffffffffffff1681526020019081526020016000206001016000838152602001908152602001600020819055505050565b6000600360008373ffffffffffffffffffffffffffffffffffffffff1673ffffffffffffffffffffffffffffffffffffffff168152602001908152602001600020600001549050919050565b6000600160009054906101000a900473ffffffffffffffffffffffffffffffffffffffff16905090565b6104388161043b565b50565b6000809054906101000a900473ffffffffffffffffffffffffffffffffffffffff1673ffffffffffffffffffffffffffffffffffffffff163373ffffffffffffffffffffffffffffffffffffffff1614151561049657600080fd5b5056fea165627a7a723058202a4bd7555fe3adc167e20397f17d921e8439806ab9343961955f5f4ba88caaa20029",
  "source": "pragma solidity ^0.5.0;\r\n\r\nimport '../Upgradeable.sol';\r\n\r\ncontract BusinessContract is Upgradeable {\r\n  struct Activity {\r\n    address _address;\r\n    uint _type;\r\n  }\r\n\r\n  struct Point {\r\n    uint totalPoint;\r\n    mapping (uint => uint) kindPoint;\r\n  }\r\n\r\n  Activity[] activities;\r\n  mapping (address => Point) point;\r\n\r\n  function initialize(address sender) public {\r\n    super.initialize(sender);\r\n  }\r\n\r\n  function addActivity(address _address, uint _type) external {\r\n    activities.push(Activity(_address, _type));\r\n    point[_address].totalPoint = point[_address].totalPoint + 1;\r\n    point[_address].kindPoint[_type] = point[_address].kindPoint[_type] + 1;\r\n  }\r\n\r\n  function getTotalPoint(address _address) view external returns(uint totalPoint) {\r\n    return point[_address].totalPoint;\r\n  }\r\n\r\n}\r\n",
  "sourcePath": "C:/Users/NaotoHama/Documents/blockchain/upgradeability_using_inherited_storage/contracts/Business/BusinessContract.sol",
  "compiler": {
    "name": "solc",
    "version": "0.5.0+commit.1d4f565a.Emscripten.clang"
  },
  "schemaVersion": "3.0.6",
  "updatedAt": "2019-04-15T15:09:46.817Z",
  "devdoc": {
    "methods": {
      "getImplementation()": {
        "details": "Tells the address of the current implementation\r",
        "return": "address of the current implementation\r"
      }
    }
  },
  "userdoc": {
    "methods": {}
  }
}