{
  "contractName": "Registry",
  "abi": [
    {
      "anonymous": false,
      "inputs": [
        {
          "indexed": false,
          "name": "proxy",
          "type": "address"
        }
      ],
      "name": "ProxyCreated",
      "type": "event"
    },
    {
      "anonymous": false,
      "inputs": [
        {
          "indexed": false,
          "name": "version",
          "type": "string"
        },
        {
          "indexed": false,
          "name": "implementation",
          "type": "address"
        }
      ],
      "name": "VersionAdded",
      "type": "event"
    },
    {
      "constant": false,
      "inputs": [
        {
          "name": "version",
          "type": "string"
        },
        {
          "name": "implementation",
          "type": "address"
        }
      ],
      "name": "addVersion",
      "outputs": [],
      "payable": false,
      "stateMutability": "nonpayable",
      "type": "function"
    },
    {
      "constant": true,
      "inputs": [
        {
          "name": "version",
          "type": "string"
        }
      ],
      "name": "getVersion",
      "outputs": [
        {
          "name": "",
          "type": "address"
        }
      ],
      "payable": false,
      "stateMutability": "view",
      "type": "function"
    },
    {
      "constant": false,
      "inputs": [
        {
          "name": "version",
          "type": "string"
        }
      ],
      "name": "createProxy",
      "outputs": [
        {
          "name": "",
          "type": "address"
        }
      ],
      "payable": false,
      "stateMutability": "nonpayable",
      "type": "function"
    }
  ],
  "bytecode": "0x608060405234801561001057600080fd5b50610af0806100206000396000f300608060405260043610610057576000357c0100000000000000000000000000000000000000000000000000000000900463ffffffff1680632200919f1461005c5780633ab50a9c146100b75780639da8e7e214610132575b600080fd5b34801561006857600080fd5b506100b5600480360381019080803590602001908201803590602001919091929391929390803573ffffffffffffffffffffffffffffffffffffffff1690602001909291905050506101db565b005b3480156100c357600080fd5b506100f0600480360381019080803590602001908201803590602001919091929391929390505050610349565b604051808273ffffffffffffffffffffffffffffffffffffffff1673ffffffffffffffffffffffffffffffffffffffff16815260200191505060405180910390f35b34801561013e57600080fd5b50610199600480360381019080803590602001908201803590602001908080601f0160208091040260200160405190810160405280939291908181526020018383808284378201915050505050509192919290505050610398565b604051808273ffffffffffffffffffffffffffffffffffffffff1673ffffffffffffffffffffffffffffffffffffffff16815260200191505060405180910390f35b600073ffffffffffffffffffffffffffffffffffffffff166000848460405180838380828437820191505092505050908152602001604051809103902060009054906101000a900473ffffffffffffffffffffffffffffffffffffffff1673ffffffffffffffffffffffffffffffffffffffff1614151561025b57600080fd5b806000848460405180838380828437820191505092505050908152602001604051809103902060006101000a81548173ffffffffffffffffffffffffffffffffffffffff021916908373ffffffffffffffffffffffffffffffffffffffff1602179055507fe2a08c9e50f4a219841f60ac40fa9d1f2cccb83ac2d3439c8c568fdf1f7c19e483838360405180806020018373ffffffffffffffffffffffffffffffffffffffff1673ffffffffffffffffffffffffffffffffffffffff1681526020018281038252858582818152602001925080828437820191505094505050505060405180910390a1505050565b600080838360405180838380828437820191505092505050908152602001604051809103902060009054906101000a900473ffffffffffffffffffffffffffffffffffffffff16905092915050565b600080826103a4610550565b8080602001828103825283818151815260200191508051906020019080838360005b838110156103e15780820151818401526020810190506103c6565b50505050905090810190601f16801561040e5780820380516001836020036101000a031916815260200191505b5092505050604051809103906000f08015801561042f573d6000803e3d6000fd5b5090508073ffffffffffffffffffffffffffffffffffffffff1663c4d66de8336040518263ffffffff167c0100000000000000000000000000000000000000000000000000000000028152600401808273ffffffffffffffffffffffffffffffffffffffff1673ffffffffffffffffffffffffffffffffffffffff168152602001915050600060405180830381600087803b1580156104cd57600080fd5b505af11580156104e1573d6000803e3d6000fd5b505050507efffc2da0b561cae30d9826d37709e9421c4725faebc226cbbb7ef5fc5e734981604051808273ffffffffffffffffffffffffffffffffffffffff1673ffffffffffffffffffffffffffffffffffffffff16815260200191505060405180910390a180915050919050565b60405161056480610561833901905600608060405234801561001057600080fd5b5060405161056438038061056483398101806040528101908080518201929190505050336000806101000a81548173ffffffffffffffffffffffffffffffffffffffff021916908373ffffffffffffffffffffffffffffffffffffffff16021790555061008b81610091640100000000026401000000009004565b50610204565b6000809054906101000a900473ffffffffffffffffffffffffffffffffffffffff1673ffffffffffffffffffffffffffffffffffffffff16633ab50a9c826040518263ffffffff167c01000000000000000000000000000000000000000000000000000000000281526004018080602001828103825283818151815260200191508051906020019080838360005b8381101561013a57808201518184015260208101905061011f565b50505050905090810190601f1680156101675780820380516001836020036101000a031916815260200191505b5092505050602060405180830381600087803b15801561018657600080fd5b505af115801561019a573d6000803e3d6000fd5b505050506040513d60208110156101b057600080fd5b8101908080519060200190929190505050600160006101000a81548173ffffffffffffffffffffffffffffffffffffffff021916908373ffffffffffffffffffffffffffffffffffffffff16021790555050565b610351806102136000396000f30060806040526004361061004c576000357c0100000000000000000000000000000000000000000000000000000000900463ffffffff1680636493e64c146100c8578063aaf10f4214610131575b34801561005857600080fd5b506000610063610188565b9050600073ffffffffffffffffffffffffffffffffffffffff168173ffffffffffffffffffffffffffffffffffffffff16141515156100a157600080fd5b60405136600082376000803683855af43d806000843e81600081146100c4578184f35b8184fd5b3480156100d457600080fd5b5061012f600480360381019080803590602001908201803590602001908080601f01602080910402602001604051908101604052809392919081815260200183838082843782019150505050505091929192905050506101b2565b005b34801561013d57600080fd5b50610146610188565b604051808273ffffffffffffffffffffffffffffffffffffffff1673ffffffffffffffffffffffffffffffffffffffff16815260200191505060405180910390f35b6000600160009054906101000a900473ffffffffffffffffffffffffffffffffffffffff16905090565b6000809054906101000a900473ffffffffffffffffffffffffffffffffffffffff1673ffffffffffffffffffffffffffffffffffffffff16633ab50a9c826040518263ffffffff167c01000000000000000000000000000000000000000000000000000000000281526004018080602001828103825283818151815260200191508051906020019080838360005b8381101561025b578082015181840152602081019050610240565b50505050905090810190601f1680156102885780820380516001836020036101000a031916815260200191505b5092505050602060405180830381600087803b1580156102a757600080fd5b505af11580156102bb573d6000803e3d6000fd5b505050506040513d60208110156102d157600080fd5b8101908080519060200190929190505050600160006101000a81548173ffffffffffffffffffffffffffffffffffffffff021916908373ffffffffffffffffffffffffffffffffffffffff160217905550505600a165627a7a723058207602a6e92aa9ec3878d00553789ab933255abef47f9d529b66ed7cc8a18cdf3c0029a165627a7a72305820675fd807342ac237265c9d26bb7da073b25c417ef4ad8eae861889af82424b5e0029",
  "source": "pragma solidity >=0.4.0 <0.6.0;\r\n\r\nimport './IRegistry.sol';\r\nimport './Upgradeable.sol';\r\nimport './UpgradeabilityProxy.sol';\r\n\r\n/**\r\n * @title Registry\r\n * @dev This contract works as a registry of versions, it holds the implementations for the registered versions.\r\n */\r\ncontract Registry is IRegistry {\r\n  // Mapping of versions to implementations of different functions\r\n  mapping (string => address) internal versions;\r\n\r\n  /**\r\n  * @dev Registers a new version with its implementation address\r\n  * @param version representing the version name of the new implementation to be registered\r\n  * @param implementation representing the address of the new implementation to be registered\r\n  */\r\n  function addVersion(string version, address implementation) external {\r\n    require(versions[version] == address(0x0));\r\n    versions[version] = implementation;\r\n    // emit event\r\n    emit VersionAdded(version, implementation);\r\n  }\r\n\r\n  /**\r\n  * @dev Tells the address of the implementation for a given version\r\n  * @param version to query the implementation of\r\n  * @return address of the implementation registered for the given version\r\n  */\r\n  function getVersion(string version) external view returns (address) {\r\n    return versions[version];\r\n  }\r\n\r\n  /**\r\n  * @dev Creates an upgradeable proxy\r\n  * @param version representing the first version to be set for the proxy\r\n  * @return address of the new proxy created\r\n  */\r\n  function createProxy(string memory version) public returns (UpgradeabilityProxy) {\r\n    UpgradeabilityProxy proxy = new UpgradeabilityProxy(version);\r\n    Upgradeable(address(proxy)).initialize(msg.sender);\r\n    // emit event\r\n    emit ProxyCreated(address(proxy));\r\n    return proxy;\r\n  }\r\n}\r\n",
  "sourcePath": "C:\\Users\\NaotoHama\\Documents\\blockchain\\upgradeability_using_inherited_storage\\contracts\\Registry.sol",
  "compiler": {
    "name": "solc",
    "version": "0.4.25+commit.59dbf8f1.Emscripten.clang"
  },
  "schemaVersion": "2.0.2",
  "updatedAt": "2019-05-27T14:55:34.419Z"
}