{
  "contractName": "Registry",
  "abi": [
    {
      "anonymous": false,
      "inputs": [
        {
          "indexed": false,
          "name": "proxy",
          "type": "address"
        }
      ],
      "name": "ProxyCreated",
      "type": "event"
    },
    {
      "anonymous": false,
      "inputs": [
        {
          "indexed": false,
          "name": "version",
          "type": "string"
        },
        {
          "indexed": false,
          "name": "implementation",
          "type": "address"
        }
      ],
      "name": "VersionAdded",
      "type": "event"
    },
    {
      "constant": false,
      "inputs": [
        {
          "name": "version",
          "type": "string"
        },
        {
          "name": "implementation",
          "type": "address"
        }
      ],
      "name": "addVersion",
      "outputs": [],
      "payable": false,
      "stateMutability": "nonpayable",
      "type": "function"
    },
    {
      "constant": true,
      "inputs": [
        {
          "name": "version",
          "type": "string"
        }
      ],
      "name": "getVersion",
      "outputs": [
        {
          "name": "",
          "type": "address"
        }
      ],
      "payable": false,
      "stateMutability": "view",
      "type": "function"
    },
    {
      "constant": false,
      "inputs": [
        {
          "name": "version",
          "type": "string"
        }
      ],
      "name": "createProxy",
      "outputs": [
        {
          "name": "",
          "type": "address"
        }
      ],
      "payable": false,
      "stateMutability": "nonpayable",
      "type": "function"
    }
  ],
  "bytecode": "0x608060405234801561001057600080fd5b50610cab806100206000396000f3fe608060405260043610610057576000357c0100000000000000000000000000000000000000000000000000000000900463ffffffff1680632200919f1461005c5780633ab50a9c146101025780639da8e7e2146101c8575b600080fd5b34801561006857600080fd5b506101006004803603604081101561007f57600080fd5b810190808035906020019064010000000081111561009c57600080fd5b8201836020820111156100ae57600080fd5b803590602001918460018302840111640100000000831117156100d057600080fd5b9091929391929390803573ffffffffffffffffffffffffffffffffffffffff1690602001909291905050506102d0565b005b34801561010e57600080fd5b506101866004803603602081101561012557600080fd5b810190808035906020019064010000000081111561014257600080fd5b82018360208201111561015457600080fd5b8035906020019184600183028401116401000000008311171561017657600080fd5b9091929391929390505050610454565b604051808273ffffffffffffffffffffffffffffffffffffffff1673ffffffffffffffffffffffffffffffffffffffff16815260200191505060405180910390f35b3480156101d457600080fd5b5061028e600480360360208110156101eb57600080fd5b810190808035906020019064010000000081111561020857600080fd5b82018360208201111561021a57600080fd5b8035906020019184600183028401116401000000008311171561023c57600080fd5b91908080601f016020809104026020016040519081016040528093929190818152602001838380828437600081840152601f19601f8201169050808301925050505050505091929192905050506104a5565b604051808273ffffffffffffffffffffffffffffffffffffffff1673ffffffffffffffffffffffffffffffffffffffff16815260200191505060405180910390f35b600073ffffffffffffffffffffffffffffffffffffffff1660008484604051808383808284378083019250505092505050908152602001604051809103902060009054906101000a900473ffffffffffffffffffffffffffffffffffffffff1673ffffffffffffffffffffffffffffffffffffffff1614151561035257600080fd5b8060008484604051808383808284378083019250505092505050908152602001604051809103902060006101000a81548173ffffffffffffffffffffffffffffffffffffffff021916908373ffffffffffffffffffffffffffffffffffffffff1602179055507fe2a08c9e50f4a219841f60ac40fa9d1f2cccb83ac2d3439c8c568fdf1f7c19e483838360405180806020018373ffffffffffffffffffffffffffffffffffffffff1673ffffffffffffffffffffffffffffffffffffffff1681526020018281038252858582818152602001925080828437600081840152601f19601f82011690508083019250505094505050505060405180910390a1505050565b6000808383604051808383808284378083019250505092505050908152602001604051809103902060009054906101000a900473ffffffffffffffffffffffffffffffffffffffff16905092915050565b600080826104b161065d565b8080602001828103825283818151815260200191508051906020019080838360005b838110156104ee5780820151818401526020810190506104d3565b50505050905090810190601f16801561051b5780820380516001836020036101000a031916815260200191505b5092505050604051809103906000f08015801561053c573d6000803e3d6000fd5b5090508073ffffffffffffffffffffffffffffffffffffffff1663c4d66de8336040518263ffffffff167c0100000000000000000000000000000000000000000000000000000000028152600401808273ffffffffffffffffffffffffffffffffffffffff1673ffffffffffffffffffffffffffffffffffffffff168152602001915050600060405180830381600087803b1580156105da57600080fd5b505af11580156105ee573d6000803e3d6000fd5b505050507efffc2da0b561cae30d9826d37709e9421c4725faebc226cbbb7ef5fc5e734981604051808273ffffffffffffffffffffffffffffffffffffffff1673ffffffffffffffffffffffffffffffffffffffff16815260200191505060405180910390a180915050919050565b6040516106128061066e8339019056fe608060405234801561001057600080fd5b506040516106123803806106128339810180604052602081101561003357600080fd5b81019080805164010000000081111561004b57600080fd5b8281019050602081018481111561006157600080fd5b815185600182028301116401000000008211171561007e57600080fd5b5050929190505050336000806101000a81548173ffffffffffffffffffffffffffffffffffffffff021916908373ffffffffffffffffffffffffffffffffffffffff1602179055506100de816100e4640100000000026401000000009004565b50610255565b6000809054906101000a900473ffffffffffffffffffffffffffffffffffffffff1673ffffffffffffffffffffffffffffffffffffffff16633ab50a9c826040518263ffffffff167c01000000000000000000000000000000000000000000000000000000000281526004018080602001828103825283818151815260200191508051906020019080838360005b8381101561018d578082015181840152602081019050610172565b50505050905090810190601f1680156101ba5780820380516001836020036101000a031916815260200191505b509250505060206040518083038186803b1580156101d757600080fd5b505afa1580156101eb573d6000803e3d6000fd5b505050506040513d602081101561020157600080fd5b8101908080519060200190929190505050600160006101000a81548173ffffffffffffffffffffffffffffffffffffffff021916908373ffffffffffffffffffffffffffffffffffffffff16021790555050565b6103ae806102646000396000f3fe60806040526004361061004c576000357c0100000000000000000000000000000000000000000000000000000000900463ffffffff1680636493e64c146100c8578063aaf10f4214610190575b34801561005857600080fd5b5060006100636101e7565b9050600073ffffffffffffffffffffffffffffffffffffffff168173ffffffffffffffffffffffffffffffffffffffff16141515156100a157600080fd5b60405136600082376000803683855af43d806000843e81600081146100c4578184f35b8184fd5b3480156100d457600080fd5b5061018e600480360360208110156100eb57600080fd5b810190808035906020019064010000000081111561010857600080fd5b82018360208201111561011a57600080fd5b8035906020019184600183028401116401000000008311171561013c57600080fd5b91908080601f016020809104026020016040519081016040528093929190818152602001838380828437600081840152601f19601f820116905080830192505050505050509192919290505050610211565b005b34801561019c57600080fd5b506101a56101e7565b604051808273ffffffffffffffffffffffffffffffffffffffff1673ffffffffffffffffffffffffffffffffffffffff16815260200191505060405180910390f35b6000600160009054906101000a900473ffffffffffffffffffffffffffffffffffffffff16905090565b6000809054906101000a900473ffffffffffffffffffffffffffffffffffffffff1673ffffffffffffffffffffffffffffffffffffffff16633ab50a9c826040518263ffffffff167c01000000000000000000000000000000000000000000000000000000000281526004018080602001828103825283818151815260200191508051906020019080838360005b838110156102ba57808201518184015260208101905061029f565b50505050905090810190601f1680156102e75780820380516001836020036101000a031916815260200191505b509250505060206040518083038186803b15801561030457600080fd5b505afa158015610318573d6000803e3d6000fd5b505050506040513d602081101561032e57600080fd5b8101908080519060200190929190505050600160006101000a81548173ffffffffffffffffffffffffffffffffffffffff021916908373ffffffffffffffffffffffffffffffffffffffff1602179055505056fea165627a7a723058206a6cda9e733d9514f001155f7090cf079b96f380b30e64f57c8c24990b5c55c60029a165627a7a723058207b964cf908e1a4c3bc436633ccb13ad2250f306c3c888a199ce72e5458a0f8010029",
  "source": "pragma solidity ^0.5.0;\r\n\r\nimport './IRegistry.sol';\r\nimport './Upgradeable.sol';\r\nimport './UpgradeabilityProxy.sol';\r\n\r\n/**\r\n * @title Registry\r\n * @dev This contract works as a registry of versions, it holds the implementations for the registered versions.\r\n */\r\ncontract Registry is IRegistry {\r\n  // Mapping of versions to implementations of different functions\r\n  mapping (string => address) internal versions;\r\n\r\n  /**\r\n  * @dev Registers a new version with its implementation address\r\n  * @param version representing the version name of the new implementation to be registered\r\n  * @param implementation representing the address of the new implementation to be registered\r\n  */\r\n  function addVersion(string calldata version, address implementation) external {\r\n    require(versions[version] == address(0x0));\r\n    versions[version] = implementation;\r\n    // emit event\r\n    emit VersionAdded(version, implementation);\r\n  }\r\n\r\n  /**\r\n  * @dev Tells the address of the implementation for a given version\r\n  * @param version to query the implementation of\r\n  * @return address of the implementation registered for the given version\r\n  */\r\n  function getVersion(string calldata version) external view returns (address) {\r\n    return versions[version];\r\n  }\r\n\r\n  /**\r\n  * @dev Creates an upgradeable proxy\r\n  * @param version representing the first version to be set for the proxy\r\n  * @return address of the new proxy created\r\n  */\r\n  function createProxy(string memory version) public returns (UpgradeabilityProxy) {\r\n    UpgradeabilityProxy proxy = new UpgradeabilityProxy(version);\r\n    Upgradeable(address(proxy)).initialize(msg.sender);\r\n    // emit event\r\n    emit ProxyCreated(address(proxy));\r\n    return proxy;\r\n  }\r\n}\r\n",
  "sourcePath": "C:/Users/NaotoHama/Documents/blockchain/upgradeability_using_inherited_storage/contracts/Registry.sol",
  "compiler": {
    "name": "solc",
    "version": "0.5.0+commit.1d4f565a.Emscripten.clang"
  },
  "schemaVersion": "3.0.6",
  "updatedAt": "2019-04-15T15:09:46.820Z",
  "devdoc": {
    "details": "This contract works as a registry of versions, it holds the implementations for the registered versions.\r",
    "methods": {
      "addVersion(string,address)": {
        "details": "Registers a new version with its implementation address\r",
        "params": {
          "implementation": "representing the address of the new implementation to be registered\r",
          "version": "representing the version name of the new implementation to be registered\r"
        }
      },
      "createProxy(string)": {
        "details": "Creates an upgradeable proxy\r",
        "params": {
          "version": "representing the first version to be set for the proxy\r"
        },
        "return": "address of the new proxy created\r"
      },
      "getVersion(string)": {
        "details": "Tells the address of the implementation for a given version\r",
        "params": {
          "version": "to query the implementation of\r"
        },
        "return": "address of the implementation registered for the given version\r"
      }
    },
    "title": "Registry\r"
  },
  "userdoc": {
    "methods": {}
  }
}