{
  "contractName": "UpgradeabilityStorage",
  "abi": [
    {
      "constant": true,
      "inputs": [],
      "name": "getImplementation",
      "outputs": [
        {
          "name": "",
          "type": "address"
        }
      ],
      "payable": false,
      "stateMutability": "view",
      "type": "function"
    }
  ],
  "bytecode": "0x608060405234801561001057600080fd5b5060ee8061001f6000396000f3fe608060405260043610603f576000357c0100000000000000000000000000000000000000000000000000000000900463ffffffff168063aaf10f42146044575b600080fd5b348015604f57600080fd5b5060566098565b604051808273ffffffffffffffffffffffffffffffffffffffff1673ffffffffffffffffffffffffffffffffffffffff16815260200191505060405180910390f35b6000600160009054906101000a900473ffffffffffffffffffffffffffffffffffffffff1690509056fea165627a7a72305820ee03c74045a53484dbffaceeb58b548a95415cdeef4bb74187f1cef8423d3e460029",
  "source": "pragma solidity ^0.5.0;\r\n\r\nimport './IRegistry.sol';\r\n\r\n/**\r\n * @title UpgradeabilityStorage\r\n * @dev This contract holds all the necessary state variables to support the upgrade functionality\r\n */\r\ncontract UpgradeabilityStorage {\r\n  // Versions registry\r\n  IRegistry internal registry;\r\n\r\n  // Address of the current implementation\r\n  address internal _implementation;\r\n\r\n  /**\r\n  * @dev Tells the address of the current implementation\r\n  * @return address of the current implementation\r\n  */\r\n  function getImplementation() public view returns (address) {\r\n    return _implementation;\r\n  }\r\n}\r\n",
  "sourcePath": "C:\\Users\\NaotoHama\\Documents\\blockchain\\upgradeability_using_inherited_storage\\contracts\\UpgradeabilityStorage.sol",
  "compiler": {
    "name": "solc",
    "version": "0.5.0+commit.1d4f565a.Emscripten.clang"
  },
  "schemaVersion": "3.0.6",
  "updatedAt": "2019-04-15T15:09:46.821Z",
  "devdoc": {
    "details": "This contract holds all the necessary state variables to support the upgrade functionality\r",
    "methods": {
      "getImplementation()": {
        "details": "Tells the address of the current implementation\r",
        "return": "address of the current implementation\r"
      }
    },
    "title": "UpgradeabilityStorage\r"
  },
  "userdoc": {
    "methods": {}
  }
}