{
  "contractName": "Upgradeable",
  "abi": [
    {
      "constant": true,
      "inputs": [],
      "name": "getImplementation",
      "outputs": [
        {
          "name": "",
          "type": "address"
        }
      ],
      "payable": false,
      "stateMutability": "view",
      "type": "function"
    },
    {
      "constant": false,
      "inputs": [
        {
          "name": "sender",
          "type": "address"
        }
      ],
      "name": "initialize",
      "outputs": [],
      "payable": false,
      "stateMutability": "nonpayable",
      "type": "function"
    }
  ],
  "bytecode": "0x608060405234801561001057600080fd5b5061019f806100206000396000f30060806040526004361061004c576000357c0100000000000000000000000000000000000000000000000000000000900463ffffffff168063aaf10f4214610051578063c4d66de8146100a8575b600080fd5b34801561005d57600080fd5b506100666100eb565b604051808273ffffffffffffffffffffffffffffffffffffffff1673ffffffffffffffffffffffffffffffffffffffff16815260200191505060405180910390f35b3480156100b457600080fd5b506100e9600480360381019080803573ffffffffffffffffffffffffffffffffffffffff169060200190929190505050610115565b005b6000600160009054906101000a900473ffffffffffffffffffffffffffffffffffffffff16905090565b6000809054906101000a900473ffffffffffffffffffffffffffffffffffffffff1673ffffffffffffffffffffffffffffffffffffffff163373ffffffffffffffffffffffffffffffffffffffff1614151561017057600080fd5b505600a165627a7a723058206c35dbc90947ccd157b4ac426065798bf0afa31f142941c96c2134885a822e050029",
  "source": "pragma solidity >=0.4.0 <0.6.0;\r\n\r\nimport './UpgradeabilityStorage.sol';\r\n\r\n/**\r\n * @title Upgradeable\r\n * @dev This contract holds all the minimum required functionality for a behavior to be upgradeable.\r\n * This means, required state variables for owned upgradeability purpose and simple initialization validation.\r\n */\r\ncontract Upgradeable is UpgradeabilityStorage {\r\n  /**\r\n  * @dev Validates the caller is the versions registry.\r\n  * THIS FUNCTION SHOULD BE OVERRIDDEN CALLING SUPER\r\n  * @param sender representing the address deploying the initial behavior of the contract\r\n  */\r\n  function initialize(address sender) public {\r\n    require(msg.sender == address(registry));\r\n  }\r\n}\r\n",
  "sourcePath": "C:\\Users\\NaotoHama\\Documents\\blockchain\\upgradeability_using_inherited_storage\\contracts\\Upgradeable.sol",
  "compiler": {
    "name": "solc",
    "version": "0.4.25+commit.59dbf8f1.Emscripten.clang"
  },
  "schemaVersion": "2.0.2",
  "updatedAt": "2019-05-27T14:52:33.549Z"
}