{
  "contractName": "UpgradeabilityStorage",
  "abi": [
    {
      "constant": true,
      "inputs": [],
      "name": "getImplementation",
      "outputs": [
        {
          "name": "",
          "type": "address"
        }
      ],
      "payable": false,
      "stateMutability": "view",
      "type": "function"
    }
  ],
  "bytecode": "0x608060405234801561001057600080fd5b5060ee8061001f6000396000f300608060405260043610603f576000357c0100000000000000000000000000000000000000000000000000000000900463ffffffff168063aaf10f42146044575b600080fd5b348015604f57600080fd5b5060566098565b604051808273ffffffffffffffffffffffffffffffffffffffff1673ffffffffffffffffffffffffffffffffffffffff16815260200191505060405180910390f35b6000600160009054906101000a900473ffffffffffffffffffffffffffffffffffffffff169050905600a165627a7a72305820164a933376b029a50a8c99b4405e0bd0b95a5ab4e54e3b314ac51f6f0a72b0cb0029",
  "source": "pragma solidity >=0.4.0 <0.6.0;\r\n\r\nimport './IRegistry.sol';\r\n\r\n/**\r\n * @title UpgradeabilityStorage\r\n * @dev This contract holds all the necessary state variables to support the upgrade functionality\r\n */\r\ncontract UpgradeabilityStorage {\r\n  // Versions registry\r\n  IRegistry internal registry;\r\n\r\n  // Address of the current implementation\r\n  address internal _implementation;\r\n\r\n  /**\r\n  * @dev Tells the address of the current implementation\r\n  * @return address of the current implementation\r\n  */\r\n  function getImplementation() public view returns (address) {\r\n    return _implementation;\r\n  }\r\n}\r\n",
  "sourcePath": "C:\\Users\\NaotoHama\\Documents\\blockchain\\upgradeability_using_inherited_storage\\contracts\\UpgradeabilityStorage.sol",
  "compiler": {
    "name": "solc",
    "version": "0.4.25+commit.59dbf8f1.Emscripten.clang"
  },
  "schemaVersion": "2.0.2",
  "updatedAt": "2019-05-27T14:52:33.549Z"
}