{
  "contractName": "UpgradeabilityProxy",
  "abi": [
    {
      "constant": true,
      "inputs": [],
      "name": "getImplementation",
      "outputs": [
        {
          "name": "",
          "type": "address"
        }
      ],
      "payable": false,
      "stateMutability": "view",
      "type": "function"
    },
    {
      "inputs": [
        {
          "name": "_version",
          "type": "string"
        }
      ],
      "payable": false,
      "stateMutability": "nonpayable",
      "type": "constructor"
    },
    {
      "payable": false,
      "stateMutability": "nonpayable",
      "type": "fallback"
    },
    {
      "constant": false,
      "inputs": [
        {
          "name": "_version",
          "type": "string"
        }
      ],
      "name": "upgradeTo",
      "outputs": [],
      "payable": false,
      "stateMutability": "nonpayable",
      "type": "function"
    }
  ],
  "bytecode": "0x608060405234801561001057600080fd5b5060405161056438038061056483398101806040528101908080518201929190505050336000806101000a81548173ffffffffffffffffffffffffffffffffffffffff021916908373ffffffffffffffffffffffffffffffffffffffff16021790555061008b81610091640100000000026401000000009004565b50610204565b6000809054906101000a900473ffffffffffffffffffffffffffffffffffffffff1673ffffffffffffffffffffffffffffffffffffffff16633ab50a9c826040518263ffffffff167c01000000000000000000000000000000000000000000000000000000000281526004018080602001828103825283818151815260200191508051906020019080838360005b8381101561013a57808201518184015260208101905061011f565b50505050905090810190601f1680156101675780820380516001836020036101000a031916815260200191505b5092505050602060405180830381600087803b15801561018657600080fd5b505af115801561019a573d6000803e3d6000fd5b505050506040513d60208110156101b057600080fd5b8101908080519060200190929190505050600160006101000a81548173ffffffffffffffffffffffffffffffffffffffff021916908373ffffffffffffffffffffffffffffffffffffffff16021790555050565b610351806102136000396000f30060806040526004361061004c576000357c0100000000000000000000000000000000000000000000000000000000900463ffffffff1680636493e64c146100c8578063aaf10f4214610131575b34801561005857600080fd5b506000610063610188565b9050600073ffffffffffffffffffffffffffffffffffffffff168173ffffffffffffffffffffffffffffffffffffffff16141515156100a157600080fd5b60405136600082376000803683855af43d806000843e81600081146100c4578184f35b8184fd5b3480156100d457600080fd5b5061012f600480360381019080803590602001908201803590602001908080601f01602080910402602001604051908101604052809392919081815260200183838082843782019150505050505091929192905050506101b2565b005b34801561013d57600080fd5b50610146610188565b604051808273ffffffffffffffffffffffffffffffffffffffff1673ffffffffffffffffffffffffffffffffffffffff16815260200191505060405180910390f35b6000600160009054906101000a900473ffffffffffffffffffffffffffffffffffffffff16905090565b6000809054906101000a900473ffffffffffffffffffffffffffffffffffffffff1673ffffffffffffffffffffffffffffffffffffffff16633ab50a9c826040518263ffffffff167c01000000000000000000000000000000000000000000000000000000000281526004018080602001828103825283818151815260200191508051906020019080838360005b8381101561025b578082015181840152602081019050610240565b50505050905090810190601f1680156102885780820380516001836020036101000a031916815260200191505b5092505050602060405180830381600087803b1580156102a757600080fd5b505af11580156102bb573d6000803e3d6000fd5b505050506040513d60208110156102d157600080fd5b8101908080519060200190929190505050600160006101000a81548173ffffffffffffffffffffffffffffffffffffffff021916908373ffffffffffffffffffffffffffffffffffffffff160217905550505600a165627a7a723058207602a6e92aa9ec3878d00553789ab933255abef47f9d529b66ed7cc8a18cdf3c0029",
  "source": "pragma solidity >=0.4.0 <0.6.0;\r\n\r\nimport './Proxy.sol';\r\nimport './IRegistry.sol';\r\nimport './UpgradeabilityStorage.sol';\r\n\r\n/**\r\n * @title UpgradeabilityProxy\r\n * @dev This contract represents a proxy where the implementation address to which it will delegate can be upgraded\r\n */\r\ncontract UpgradeabilityProxy is Proxy, UpgradeabilityStorage {\r\n\r\n  /**\r\n  * @dev Constructor function\r\n  */\r\n  constructor(string memory _version) public {\r\n    registry = IRegistry(msg.sender);\r\n    upgradeTo(_version);\r\n  }\r\n\r\n  /**\r\n  * @dev Upgrades the implementation to the requested version\r\n  * @param _version representing the version name of the new implementation to be set\r\n  */\r\n  function upgradeTo(string memory _version) public {\r\n    _implementation = registry.getVersion(_version);\r\n  }\r\n\r\n}\r\n",
  "sourcePath": "C:\\Users\\NaotoHama\\Documents\\blockchain\\upgradeability_using_inherited_storage\\contracts\\UpgradeabilityProxy.sol",
  "compiler": {
    "name": "solc",
    "version": "0.4.25+commit.59dbf8f1.Emscripten.clang"
  },
  "schemaVersion": "2.0.2",
  "updatedAt": "2019-05-27T14:55:34.421Z"
}