{
  "contractName": "Upgradeable",
  "abi": [
    {
      "constant": true,
      "inputs": [],
      "name": "getImplementation",
      "outputs": [
        {
          "name": "",
          "type": "address"
        }
      ],
      "payable": false,
      "stateMutability": "view",
      "type": "function"
    },
    {
      "constant": false,
      "inputs": [
        {
          "name": "sender",
          "type": "address"
        }
      ],
      "name": "initialize",
      "outputs": [],
      "payable": false,
      "stateMutability": "nonpayable",
      "type": "function"
    }
  ],
  "bytecode": "0x608060405234801561001057600080fd5b506101ad806100206000396000f3fe60806040526004361061004c576000357c0100000000000000000000000000000000000000000000000000000000900463ffffffff168063aaf10f4214610051578063c4d66de8146100a8575b600080fd5b34801561005d57600080fd5b506100666100f9565b604051808273ffffffffffffffffffffffffffffffffffffffff1673ffffffffffffffffffffffffffffffffffffffff16815260200191505060405180910390f35b3480156100b457600080fd5b506100f7600480360360208110156100cb57600080fd5b81019080803573ffffffffffffffffffffffffffffffffffffffff169060200190929190505050610123565b005b6000600160009054906101000a900473ffffffffffffffffffffffffffffffffffffffff16905090565b6000809054906101000a900473ffffffffffffffffffffffffffffffffffffffff1673ffffffffffffffffffffffffffffffffffffffff163373ffffffffffffffffffffffffffffffffffffffff1614151561017e57600080fd5b5056fea165627a7a72305820eba46c2063bde44a1f3ab91dfb797de541da0fdaf737d390853538a3a3e135f40029",
  "source": "pragma solidity ^0.5.0;\r\n\r\nimport './UpgradeabilityStorage.sol';\r\n\r\n/**\r\n * @title Upgradeable\r\n * @dev This contract holds all the minimum required functionality for a behavior to be upgradeable.\r\n * This means, required state variables for owned upgradeability purpose and simple initialization validation.\r\n */\r\ncontract Upgradeable is UpgradeabilityStorage {\r\n  /**\r\n  * @dev Validates the caller is the versions registry.\r\n  * THIS FUNCTION SHOULD BE OVERRIDDEN CALLING SUPER\r\n  * @param sender representing the address deploying the initial behavior of the contract\r\n  */\r\n  function initialize(address sender) public {\r\n    require(msg.sender == address(registry));\r\n  }\r\n}\r\n",
  "sourcePath": "C:\\Users\\NaotoHama\\Documents\\blockchain\\upgradeability_using_inherited_storage\\contracts\\Upgradeable.sol",
  "compiler": {
    "name": "solc",
    "version": "0.5.0+commit.1d4f565a.Emscripten.clang"
  },
  "schemaVersion": "3.0.6",
  "updatedAt": "2019-04-15T15:09:46.821Z",
  "devdoc": {
    "details": "This contract holds all the minimum required functionality for a behavior to be upgradeable.\r This means, required state variables for owned upgradeability purpose and simple initialization validation.\r",
    "methods": {
      "getImplementation()": {
        "details": "Tells the address of the current implementation\r",
        "return": "address of the current implementation\r"
      },
      "initialize(address)": {
        "details": "Validates the caller is the versions registry.\r THIS FUNCTION SHOULD BE OVERRIDDEN CALLING SUPER\r",
        "params": {
          "sender": "representing the address deploying the initial behavior of the contract\r"
        }
      }
    },
    "title": "Upgradeable\r"
  },
  "userdoc": {
    "methods": {}
  }
}